:100000000C9462000C94A10B0C94CE0B0C948A00FF
:100010000C948A000C948A000C948A000C948A0038
:100020000C948A000C948A000C948A000C948A0028
:100030000C948A000C948A000C948A000C948A0018
:100040000C94FB0B0C948A000C94CC0D0C941A0E9F
:100050000C948A000C948A000C948A000C948A00F8
:100060000C948A000C948A000000000024002700F1
:100070002A0000000000250028002B0000000000DE
:1000800023002600290004040404040404040202DA
:100090000202020203030303030301020408102007
:1000A0004080010204081020010204081020000012
:1000B0000007000201000003040600000000000029
:1000C0000000880F11241FBECFEFD8E0DEBFCDBFE8
:1000D00015E0A0E0B1E0EAEAFAE202C005900D9274
:1000E000A035B107D9F716E0A0E5B5E001C01D9233
:1000F000A331B107E1F710E0C4ECD0E004C02297CF
:10010000FE010E944F15C23CD107C9F70E94DE0FC5
:100110000C9453150C940000FC01718360838FE0F4
:1001200090E09383828381E490E0958384830895B3
:10013000BC016A5F7F4F8DEE95E042E050E00E9487
:100140001C1120E0029709F421E0822F0895EF921C
:10015000FF920F931F937C010DEE15E0C80167E835
:100160000E94460FC801B7014AE050E00E94DA1031
:10017000C80164E00E94460F1F910F91FF90EF901D
:100180000895EF92FF920F931F937C010DEE15E0FF
:10019000C80167E80E94460FC801B7010E94ED1030
:1001A000C80164E00E94460F1F910F91FF90EF90ED
:1001B00008950F931F93CF93DF938C0170E0CB01D1
:1001C0008F709070D80113969C938E9312976074E1
:1001D000707015967C936E9314976115710529F0D4
:1001E0006034710509F095C1B2C0C8010E94980041
:1001F000F8018681682F772767FD70957695762FB1
:100200006627779567958781992787FD9095682B55
:10021000792B828193818830910509F466C08930F9
:100220009105C4F48230910509F43FC083309105F3
:1002300034F4009751F1019709F043C12EC0843086
:10024000910509F442C084309105BCF1059709F08D
:1002500038C143C08B30910509F45DC08C309105E5
:1002600044F48930910509F448C00A9709F029C17E
:100270004CC08D30910509F45CC08D3091050CF4B3
:1002800052C00E9709F01DC15AC0D801ED91FC91E2
:10029000808191810E94270340C1D801ED91FC919A
:1002A000808191810E94790338C1D801ED91FC9140
:1002B000808191810E94010530C1D801ED91FC91AE
:1002C000808191810E944F0528C1D801ED91FC9158
:1002D000808191810E949A0320C1D801ED91FC9107
:1002E000808191810E94AF0318C1D801ED91FC91EA
:1002F000808191810E94BB0310C1D801ED91FC91D6
:10030000808191810E94C50308C1F801808191819B
:100310000E94BD0702C1D801ED91FC9180819181BD
:100320000E942B06FAC0D801ED91FC918081918149
:10033000A4C0D801ED91FC9180819181A8C0D80121
:10034000ED91FC91808191810E94D003E6C08830BC
:10035000910509F479C089309105CCF4823091057A
:1003600009F440C08330910534F4009719F10197E6
:1003700009F0A7C028C08430910509F44EC084302C
:1003800091050CF441C0059709F09BC04EC08C301C
:10039000910524F40A970CF0C0C05FC08D30910520
:1003A00009F46EC08D3091050CF460C00E9709F011
:1003B00088C070C0D801ED91FC910190F081E02DD2
:1003C000C3A1D4A188C0D801ED91FC910190F08126
:1003D000E02DA1A1B2A1ED91FC9111970084F185CE
:1003E000E02D0EC0D801ED91FC910190F081E02D3F
:1003F000A1A1B2A1ED91FC9111970284F385E02DAA
:10040000CD010995EC0167C0D801ED91FC910190F7
:10041000F081E02DC28DD38D5EC0D801ED91FC91AD
:10042000808191810E94E002EDCFD801ED91FC9195
:100430000190F081E02DA1A1B2A1ED91FC91119765
:100440000484F585E02DDCCFD801ED91FC9101907D
:10045000F081E02DC48DD58D3EC0D801ED91FC9189
:100460000190F081E02DC68DD78D35C0D801ED917A
:10047000FC91808191816FEF7FEF0E9402044DC05B
:10048000D801ED91FC91808191816FEF7FEF0E9407
:10049000EC0343C0D801ED91FC910190F081E02D77
:1004A00001A4F2A5E02D608571858285938520E009
:1004B00030E04AE754E40E9482140E944613EB01A4
:1004C0000AC080E091E00E94C100F801828193811E
:1004D0000E94A70022C0D7FD20C0D80112966D91BE
:1004E0007C91139760688DEE95E00E94460FBE01E7
:1004F000660F672F661F770B6F778DEE95E00E9472
:10050000460FFE01EF776E2F8DEE95E00E94460FAD
:1005100004C080E191E00E94C1008FE090E0D8012A
:1005200013969C938E93129781E490E015969C937A
:100530008E931497DF91CF911F910F9108950E9490
:10054000D9000895209150053091510580911D01E9
:1005500090911E01820F931F181619061CF020E0BF
:1005600030E00AC0809150059091510520911D0105
:1005700030911E01280F391F3093510520935005EB
:100580000895209152053091530580911F0190915B
:100590002001820F931F181619061CF020E030E08E
:1005A0000AC0809152059091530520911F0130910E
:1005B0002001280F391F30935305209352050895C9
:1005C000FC01F8940190F081E02D808191814081BF
:1005D00051817894880F892F881F990B8F77282F46
:1005E00030E03695322F2227379527954F77842F85
:1005F00090E0282B392BC90108950F931F93FC011C
:10060000758364835783468381E090E0918F808F68
:10061000138E128E958F848F80E090E1978F868F56
:1006200012A301A336A325A31F910F910895FC01E6
:10063000A1A1B2A1ED91FC91119760912705709154
:1006400028050280F381E02DCD0109950895FC0174
:10065000CB0123E16938720714F088E893E197FF32
:1006600002C080E090E094A383A3A1A1B2A1ED9188
:10067000FC91119760912705709128050280F38104
:10068000E02DCD0109950895CF93DF93EC018FA163
:1006900098A505974CF1E9A1FAA1A081B1811A961C
:1006A0002D913C911B97CF01F9010995AC018FA1C8
:1006B00098A58730910571F08830910534F4853024
:1006C000910541F0069781F40AC08830910539F010
:1006D000099751F420E04130510539F403C020E07E
:1006E000452B19F421E001C020E0822FDF91CF914A
:1006F00008950F931F93CF93DF93EC018B01161690
:1007000017061CF00E94170310C00E9444038823A0
:1007100061F4E9A1FAA1A081B18112962D913C91D9
:100720001397CF01B801F9010995DF91CF911F917E
:100730000F910895FC01848D958D681779073CF021
:10074000268D378DCB01261737070CF4C901F89495
:100750000190F081E02D9183808378940895FC01CD
:10076000A1A1B2A1ED91FC9111970680F781E02D36
:10077000CD0109950895FC01CB011616170614F05A
:1007800081E090E0958F848F0895FC01CB0120E1FA
:100790006130720714F080E090E1978F868F0895A2
:1007A0000F931F939B01FC0101A512A5442737FD60
:1007B0004095542FCA01B9010E94791320E030E01E
:1007C0004AE754E40E94DE12AB01BC01C8010E945A
:1007D000C7081F910F9108950F931F939B01FC0170
:1007E00001A512A5442737FD4095542FCA01B90130
:1007F0000E947913AB01BC01C8010E942C091F9112
:100800000F9108950F931F939B01FC0101A512A561
:10081000442737FD4095542FCA01B9010E9479132E
:10082000AB01BC01C8010E9404091F910F910895FA
:10083000CF93DF93EC01F894E881F9818081918175
:10084000208131817894880F892F881F990B8F77A9
:10085000682F70E07695762F6627779567952F77C6
:10086000822F90E0682B792B89A59AA50E949F0979
:10087000882341F089A59AA50E945409BC01CE01A4
:100880000E947903DF91CF910895FF920F931F93F8
:10089000F82E0DEE15E0C80166E80E94460FC8016B
:1008A0006F2D0E94460F1F910F91FF9008950F9397
:1008B0001F938C010E94170386E090E0F80190A737
:1008C00087A30E9445041F910F910895CF93DF9352
:1008D000EC018FA198A5029741F082E090E00E9480
:1008E000450482E090E098A78FA3DF91CF9108950F
:1008F000CF93DF93EC018FA198A5019741F081E0A0
:1009000090E00E94450481E090E098A78FA3DF91DA
:10091000CF910895CF93DF93EC01E9A1FAA1A081D3
:10092000B1811A962D913C911B97CF01F901099540
:10093000009721F4CE010E94780405C0019719F4B4
:10094000CE010E946604DF91CF9108950F931F930B
:10095000CF93DF93EC018E810E94780D8C018E89FC
:100960009F890817190731F00E94430C6A8B7B8B13
:100970008C8B9D8B0E94430C2A893B894C895D8915
:10098000621B730B840B950B6F5571408040904038
:10099000A8F08A859B850817190781F01B870A87AD
:1009A0000115110521F4CE010E948A0407C0888533
:1009B0009985019719F4CE010E9457041F8B0E8B65
:1009C000DF91CF911F910F910895CF93DF93EC01A9
:1009D000E9A1FAA1A081B1811A962D913C911B97B2
:1009E000CF01F9010995009721F4CE010E94780406
:1009F00005C0019719F4CE010E946604DF91CF91E2
:100A000008950F931F93CF93DF93EC018B01E9A11E
:100A1000FAA1A081B1811A962D913C911B97CF012B
:100A2000F9010995A9A1BAA18017910759F1ED9192
:100A3000FC9111970480F581E02DCD01B801099555
:100A4000A9A1BAA1ED91FC9111970284F385E02D43
:100A5000CD010995009751F4EA81FB8181E090E096
:100A600091838083CE010E94780414C0019791F491
:100A7000EA81FB818FEF9FEF91838083CE010E94FB
:100A8000660408C0ED91FC9111970684F785E02D6E
:100A9000CD010995DF91CF911F910F9108950F938B
:100AA0001F93CF93DF938C016115710531F4DC0145
:100AB0005B961C921E925A974DC0FC01848D958DB9
:100AC000681779073CF0268D378DCB01261737073D
:100AD0000CF4C901D8015B969C938E935A97F894B5
:100AE000D801ED91FC9180819181208131817894B0
:100AF000880F892F881F990B8F77C82FD0E0D69544
:100B0000DC2FCC27D795C7952F77822F90E0C82B65
:100B1000D92BF801A1A1B2A1ED91FC91119702840A
:100B2000F385E02DCD010995D8015A962D913C9180
:100B30005B97892B39F42C173D0764F4C80161E0F9
:100B400070E006C0C217D3072CF4C80160E070E063
:100B50000E940105DF91CF911F910F910895CF93CE
:100B6000DF93EC018C810E94780D9987888701972B
:100B700021F58C8D9D8D20E18130920744F48E8D7E
:100B80009F8D20E18030920714F080E090E1F8948E
:100B9000E881F981918380837894CE0161E070E0EF
:100BA0000E9401058091290590912A0564E070E07A
:100BB0000E940415CE010E947903DF91CF91089520
:100BC000CF93DF93EC018FA198A5079759F0CE0141
:100BD0000E94170387E090E00E94450487E090E0C0
:100BE00098A78FA3DF91CF910895CF93DF93EC0166
:100BF0008FA198A5089759F0CE010E94170388E0AD
:100C000090E00E94450488E090E098A78FA3DF91D0
:100C1000CF910895CF93DF93EC018FA198A503970F
:100C200069F0CE010E9417031B8E1A8E83E090E0BC
:100C30000E94450483E090E098A78FA3DF91CF91B5
:100C4000089524E030E0FC0130A727A384E090E081
:100C50000E9445040895CF93DF93EC01DB01161643
:100C600017063CF54A8D5B8D41155105B1F1F8949D
:100C7000E881F98180819181208131817894880F88
:100C8000892F881F990B8F77682F70E07695762FC4
:100C90006627779567952F77822F90E0682B792BC1
:100CA00089A59AA59D010E944708CE010E942106B0
:100CB00014C0E9A1FAA1A081B1811A962D913C91AD
:100CC0001B97CF01F9010995892B21F4CE010E94D0
:100CD000780403C0CE010E946604DF91CF9108958D
:100CE000CF93DF93EC010E94170385E090E098A773
:100CF0008FA38C8D9D8D823091053CF48E8D9F8DC0
:100D00001816190614F481E090E0F894E881F9814E
:100D100091838083789485E090E00E944504DF9180
:100D2000CF9108950F931F93CF93DF93EC018C81A4
:100D30000E94780D8C01888999890817190731F06C
:100D40000E94430C6C877D878E879F870E94430C8F
:100D50002C853D854E855F85621B730B840B950B3F
:100D60006739710581059105A0F088859985081777
:100D7000190779F0198708870115110521F4CE01AB
:100D80000E94700606C00130110519F4CE010E94C0
:100D9000E504198B088BDF91CF911F910F91089576
:100DA0000F931F93CF93DF93EC010E949206CE0125
:100DB0000E94A6048FA198A50597029708F448C041
:100DC000E881F981008111818C8D9D8D08171907AB
:100DD00024F4CE010E94E0053BC08E8D9F8D8017CC
:100DE000910724F4CE010E94F50532C0E9A1FAA1D1
:100DF000A081B1811A962D913C911B97CF01F901E9
:100E000009952A8D3B8D892B71F42115310519F037
:100E10002017310774F08FA198A5049791F0CE01A7
:100E20000E94780415C02115310539F00217130707
:100E300024F4CE010E940A060BC08FA198A5049746
:100E400021F4CE010E94180403C0CE010E94660462
:100E5000DF91CF911F910F910895EF92FF920F9321
:100E60001F93CF93DF93EC018DA19EA1009719F002
:100E70000197F1F40EC080E062EA72E041E050E0D8
:100E80000E947E0B80E595E0998388838DE191E057
:100E90000DC081E061EC72E041E050E00E947E0B09
:100EA00082E595E0998388838FE191E09B838A8333
:100EB0008C8160E00E94E50C8E8160E00E94E50C70
:100EC000A9A1BAA1ED91FC9111970190F081E02DBB
:100ED000CD010995A9A1BAA1ED91FC9111970480CA
:100EE000F581E02DCD0161E070E00995CE0160E073
:100EF00070E00E940105CE010E94170318A28C81A8
:100F00000E94780D99878887892B19F4CE010E9459
:100F100070068E810E94780D9B878A87019719F44D
:100F2000CE010E94570485E390E00E94ED0FF82E59
:100F3000E92E0091290510912A05B801882777FD2F
:100F40008095982F0E9479132FE135E84BEE5DE3F1
:100F50000E9482140E9446139B01AC018F2D9E2D8E
:100F6000B901A8010E94FD07F9A6EAA6DF91CF9179
:100F70001F910F91FF90EF900895FC018081918166
:100F80000E94AF050895FC01808191810E94D006E6
:100F90000895FC01808191810E942D070895BF92E0
:100FA000CF92DF92EF92FF920F931F936C018CE030
:100FB00090E00E94ED0FB82E192F6BE044E026E080
:100FC00009E00E94590A8BE290E00E94ED0FF82E92
:100FD000E92E6EE070E043E150E021E030E00B2DBF
:100FE0000E94FD02F601F082E1821F910F91FF90B5
:100FF000EF90DF90CF90BF900895CF92DF92EF9265
:10100000FF920F931F936C017A01882777FD8095DB
:10101000982F0E947913F6016083718382839383F2
:101020000027F7FC0095102FC801B7010E94791323
:10103000F601648375838683978380E090E0A0E85F
:10104000BFE380879187A287B38780E090E0AAEF13
:10105000B3E484879587A687B787808B918BA28B13
:10106000B38B178A168A118E108E12A282E390E03B
:10107000A0E0B0E083A394A3A5A3B6A310AA17A6EB
:101080001F910F91FF90EF90DF90CF900895CF9236
:10109000DF92EF92FF920F931F93CF93DF93EC01B8
:1010A000FB01CA0169017F8B6E8B598F488F861BAC
:1010B000970B62E070E00E9404156E0F7F1F7D8B1E
:1010C0006C8B6C817D818E819F81288139814A81E1
:1010D0005B810E9475127B018C0120E030E040E0D2
:1010E00050E00E947E1418161CF4C801B70103C01A
:1010F000C801B70190580E9446137AAB69ABDCAACD
:10110000CBAA2E893F89888D998D821793071CF071
:1011100018AA1FA604C081E090E098AB8FA76BA12E
:101120007CA18DA19EA10E9477139B01AC0160E080
:1011300070E08AE794E40E94DE127B018C012C852A
:101140003D854E855F850E94DE126A8F7B8F8C8F76
:101150009D8FC801B701288939894A895B890E9416
:10116000DE126E8F7F8F88A399A380E090E0A0E8C5
:10117000BFE38BA79CA7ADA7BEA71AA2DF91CF9113
:101180001F910F91FF90EF90DF90CF900895EF9215
:10119000FF920F931F93CF93DF93EC017A018B01A2
:1011A000CB01BA0120E030E040E050E00E94DA12CA
:1011B00088235CF40F2EF0E0EF2EF0E0FF2EF0E03D
:1011C0000F2FF0E01F2FF02D14C0C801B70120E051
:1011D00030E040E85FE30E947E14181654F40F2EAE
:1011E000F0E0EF2EF0E0FF2EF0E80F2FFFE31F2FCF
:1011F000F02DE886F9860A871B87DF91CF911F9132
:101200000F91FF90EF900895EF92FF920F931F932D
:10121000CF93DF93EC017A018B01CB01BA012DEC66
:101220003CEC4CEC5DE30E947E14181654F00F2E3B
:10123000FDECEF2EFCECFF2EFCEC0F2FFDE31F2F3F
:10124000F02DEC86FD860E871F87DF91CF911F91D1
:101250000F91FF90EF900895EF92FF920F931F93DD
:10126000CF93DF93EC017A018B01CB01BA012DEC16
:101270003CEC4CEC5DE30E947E14181654F00F2EEB
:10128000FDECEF2EFCECFF2EFCEC0F2FFDE31F2FEF
:10129000F02DE88AF98A0A8B1B8BDF91CF911F9181
:1012A0000F91FF90EF9008950F931F93CF93DF93CB
:1012B000EC016BA57CA58DA59EA520E030E040E863
:1012C0005FE30E94751220E030E040E853E40E94A2
:1012D00082140E94B4130E944613161617061CF0BF
:1012E00060E070E002C0615070408B01000F111F80
:1012F000000F111F095D1E4F69A97AA9882777FD84
:101300008095982F0E947913F801208131814281C4
:1013100053810E948214288539854A855B850E9405
:101320008214288139814A815B810E9476120E9451
:101330004613CB01DF91CF911F910F9108956F92CA
:101340007F928F929F92AF92BF92CF92DF92EF9255
:10135000FF920F931F93CF93DF93EC018B010E94B9
:10136000430C5B016C012BA13CA14DA15EA18FA19F
:1013700098A5A9A5BAA535014601681A790A8A0A6D
:101380009B0A621673068406950610F480E076C008
:101390008AA1882379F58FA598A92C893D89892B65
:1013A00021F40217130734F003C02017310714F09B
:1013B00081E08AA36BA57CA58DA59EA52A8D3B8D7A
:1013C0004C8D5D8D0E9476127B018C0120E030E017
:1013D00040E050E40E947E1418160CF03DC00F2E21
:1013E000F0E0EF2EF0E0FF2EF0E00F2FF0E41F2FE3
:1013F000F02D32C06BA97CA9621B730B7CAB6BAB6D
:10140000882777FD8095982F0E94791320E030E09F
:1014100040E050E00E94DA1288231CF56BA57CA501
:101420008DA59EA52E8D3F8D48A159A10E947512B4
:101430007B018C0120E030E040E85FE30E94DA129B
:10144000882354F40F2EF0E0EF2EF0E0FF2EF0E8AA
:101450000F2FFFE31F2FF02DEBA6FCA60DA71EA755
:1014600008C080E090E0A0E0B0E48BA79CA7ADA707
:10147000BEA7AFA2B8A6C9A6DAA681E0DF91CF9138
:101480001F910F91FF90EF90DF90CF90BF90AF90A2
:101490009F908F907F906F900895FC01828193813F
:1014A0000895FC01848195810895FC0186819781CE
:1014B00008950F93FC018FE295E09183808360870C
:1014C0004187028723870F910895DC0177FF03C0CE
:1014D00060E070E005C06230710514F061E070E01A
:1014E00015967C936E931497ED91FC911197068459
:1014F000F785E02DCD01099508950F931F93CF93A4
:10150000DF938C01EB0177FF03C0C0E0D0E006C0A1
:1015100082E06130780714F0C0E0D2E0F801808505
:1015200060E00E94240DF801818560E00E94240D96
:10153000F801D783C6838285893029F4D093890046
:10154000C093880006C08A3021F4D0938B00C093EA
:101550008A00DF91CF911F910F910895CF93DF9370
:10156000EC018C819D81892B39F4888560E00E9493
:10157000240D898561E006C0888561E00E94240D04
:10158000898560E00E94240DDF91CF910895CF936B
:10159000DF93EC0177FF03C060E070E006C082E0FB
:1015A0006130780714F060E072E07B836A838A859B
:1015B000893029F4709389006093880006C08A30CE
:1015C00021F470938B0060938A00672B49F488851F
:1015D00060E00E94240D898560E00E94240D07C010
:1015E000E881F9810684F785E02DCE010995DF9128
:1015F000CF9108950F931F938C01FC01808561E0CA
:101600000E94E50CF801818561E00E94E50CF8017B
:10161000828561E00E94E50CF801838560E00E940C
:10162000E50C80EA8093800081E18093810080E076
:1016300092E090938700809386001F910F91089508
:101640000F931F938DEE95E00E94DC0E892B61F0C5
:1016500000915605109157058DEE95E00E940D0FF3
:10166000682FC8010E949F028091540590915505F2
:101670000E94C3076AE070E080E090E00E94510C95
:101680001F910F9108950F931F938DEE95E040E801
:1016900055E260E070E00E94550E8DEE95E00E94EC
:1016A000860F8823D1F364E670E080E090E00E942A
:1016B000510C82E090E00E94ED0F182F092F0E943C
:1016C000CF07109354050093550588E090E00E94E1
:1016D000ED0F182F092F60915405709155050E9448
:1016E0008C001093560500935705809154059091F6
:1016F00055050E94C9071F910F910895823000F58A
:10170000E82FF0E0EE0FFF1FE85AFA4F7183608375
:10171000882319F08130A1F408C0809169008C7F82
:10172000842B80936900E89A089580916900440FA2
:10173000551F440F551F837F842B80936900E99ABE
:1017400008951F920F920FB60F9211242F933F937B
:101750004F935F936F937F938F939F93AF93BF93B9
:10176000EF93FF938091580590915905892B29F0AB
:10177000E0915805F09159050995FF91EF91BF91BE
:10178000AF919F918F917F916F915F914F913F9119
:101790002F910F900FBE0F901F9018951F920F92D0
:1017A0000FB60F9211242F933F934F935F936F9334
:1017B0007F938F939F93AF93BF93EF93FF9380910A
:1017C0005A0590915B05892B29F0E0915A05F0911B
:1017D0005B050995FF91EF91BF91AF919F918F911B
:1017E0007F916F915F914F913F912F910F900FBE1D
:1017F0000F901F9018951F920F920FB60F92112401
:101800002F933F938F939F93AF93BF9380916005E6
:1018100090916105A0916205B091630530916405D6
:101820000196A11DB11D232F2D5F2D3720F02D57BF
:101830000196A11DB11D20936405809360059093CE
:101840006105A0936205B093630580915C0590915A
:101850005D05A0915E05B0915F050196A11DB11DCA
:1018600080935C0590935D05A0935E05B0935F0542
:10187000BF91AF919F918F913F912F910F900FBE8C
:101880000F901F9018958FB7F894209160053091B4
:10189000610540916205509163058FBFB901CA018E
:1018A00008959B01AC017FB7F89480915C059091FD
:1018B0005D05A0915E05B0915F0566B5A89B05C06A
:1018C0006F3F19F00196A11DB11D7FBFBA2FA92F3F
:1018D000982F8827860F911DA11DB11D62E0880FEA
:1018E000991FAA1FBB1F6A95D1F7BC012DC0FFB776
:1018F000F89480915C0590915D05A0915E05B09192
:101900005F05E6B5A89B05C0EF3F19F00196A11D44
:10191000B11DFFBFBA2FA92F982F88278E0F911DB9
:10192000A11DB11DE2E0880F991FAA1FBB1FEA95F8
:10193000D1F7861B970B885E9340C8F22150304048
:101940004040504068517C4F2115310541055105FB
:1019500071F60895789484B5826084BD84B5816001
:1019600084BD85B5826085BD85B5816085BDEEE6A7
:10197000F0E0808181608083E1E8F0E01082808186
:1019800082608083808181608083E0E8F0E08081F4
:1019900081608083E1EBF0E0808184608083E0EB14
:1019A000F0E0808181608083EAE7F0E080818460FC
:1019B0008083808182608083808181608083808158
:1019C000806880831092C1000895CF93DF93482FE1
:1019D00050E0CA0186569F4FFC0134914A575F4F31
:1019E000FA018491882369F190E0880F991FFC0126
:1019F000E859FF4FA591B491FC01EE58FF4FC591F6
:101A0000D491662351F42FB7F8948C91932F90952D
:101A100089238C93888189230BC0623061F42FB7AE
:101A2000F8948C91932F909589238C938881832BA4
:101A300088832FBF06C09FB7F8948C91832B8C931B
:101A40009FBFDF91CF910895482F50E0CA01825582
:101A50009F4FFC012491CA0186569F4FFC0194912F
:101A60004A575F4FFA013491332309F440C02223CF
:101A700051F1233071F0243028F42130A1F02230CC
:101A800011F514C02630B1F02730C1F02430D9F45C
:101A900004C0809180008F7703C0809180008F7D8B
:101AA0008093800010C084B58F7702C084B58F7D8D
:101AB00084BD09C08091B0008F7703C08091B000D1
:101AC0008F7D8093B000E32FF0E0EE0FFF1FEE5804
:101AD000FF4FA591B4912FB7F894662321F48C9110
:101AE0009095892302C08C91892B8C932FBF0895E8
:101AF000682F70E0CB0182559F4FFC012491CB01F0
:101B000086569F4FFC0144916A577F4FFB01949189
:101B1000992319F420E030E03CC0222351F1233016
:101B200071F0243028F42130A1F0223011F514C0D6
:101B30002630B1F02730C1F02430D9F404C08091B0
:101B400080008F7703C0809180008F7D809380001C
:101B500010C084B58F7702C084B58F7D84BD09C065
:101B60008091B0008F7703C08091B0008F7D80930B
:101B7000B000892F90E0880F991F84589F4FFC0177
:101B8000A591B4918C9120E030E0842311F021E004
:101B900030E0C901089508951F920F920FB60F9279
:101BA00011242F933F934F938F939F93EF93FF9322
:101BB0008091C00082FD1DC04091C6002091A50506
:101BC0003091A6052F5F3F4F2F7330708091A7058E
:101BD0009091A8052817390771F0E091A505F091BB
:101BE000A605EB59FA4F40833093A6052093A5052F
:101BF00002C08091C600FF91EF919F918F914F910C
:101C00003F912F910F900FBE0F901F901895E0916C
:101C1000F905F091FA05E05CFF4F819191912081E7
:101C20003181821B930B8F739070892B11F00E946E
:101C3000CB0D08951F920F920FB60F9211242F9380
:101C40003F938F939F93EF93FF932091E9053091FA
:101C5000EA058091EB059091EC052817390731F4DE
:101C60008091C1008F7D8093C10014C0E091EB058D
:101C7000F091EC05E755FA4F20818091EB059091AA
:101C8000EC0501968F7390709093EC058093EB05B3
:101C90002093C600FF91EF919F918F913F912F91DB
:101CA0000F900FBE0F901F901895AF92BF92DF92CA
:101CB000EF92FF920F931F93CF93DF93EC017A0182
:101CC0008B01DD24403081EE580780E0680780E01A
:101CD000780711F0DD24D39491E0A92EB12CEC8982
:101CE000FD89DD2069F0C50108A002C0880F991F99
:101CF0000A94E2F7808360E079E08DE390E005C02C
:101D0000108260E874E88EE190E0A80197010E94DB
:101D10001715215030404040504056954795379513
:101D2000279580E12030380720F0DD2011F0DD24F8
:101D3000D6CFE889F9893083EA89FB89208319A203
:101D4000EE89FF89408121E030E0C9010C8C02C09E
:101D5000880F991F0A94E2F7482B4083EE89FF8988
:101D60004081C9010D8C02C0880F991F0A94E2F7C7
:101D7000482B4083EE89FF894081C9010E8C02C047
:101D8000880F991F0A94E2F7482B4083EE89FF8958
:101D900080810F8C02C0220F331F0A94E2F7209536
:101DA00028232083DF91CF911F910F91FF90EF9017
:101DB000DF90BF90AF900895DC011C96ED91FC91EF
:101DC0001D97E05CFF4F2191319180819181281B0B
:101DD000390B2F733070C9010895DC011C96ED9109
:101DE000FC911D97E05CFF4F20813181E054F04071
:101DF000DF01AE5BBF4F8D919C911197281739077A
:101E000019F42FEF3FEF07C08D919C91E80FF91F58
:101E10008081282F30E0C9010895DC011C96ED91E6
:101E2000FC911D97E05CFF4F20813181E054F04030
:101E3000DF01AE5BBF4F8D919C9111972817390739
:101E400019F42FEF3FEF10C08D919C911197E80F7F
:101E5000F91F20818D919C91119701968F7390703D
:101E600011969C938E9330E0C9010895DC01919600
:101E70008C919197882339F05496ED91FC91559768
:101E8000808186FFF9CF91961C920895CF93DF93BE
:101E9000EC01EE85FF85E05CFF4F20813181E0544D
:101EA000F0402F5F3F4F2F733070DF01AE5BBF4FAD
:101EB0008D919C91119728173907D1F3E05CFF4F62
:101EC00080819181E054F040E80FF91F6083EE8536
:101ED000FF85E05CFF4F31832083EE89FF892081FD
:101EE00081E090E00F8C02C0880F991F0A94E2F7FE
:101EF000282B208381E089A3EC89FD89808180647F
:101F0000808381E090E0DF91CF91089581E0089592
:101F10001092F0051092EF0588EE93E0A0E0B0E09B
:101F20008093F1059093F205A093F305B093F40527
:101F300083E495E09093EE058093ED0585E695E0CA
:101F40009093FA058093F90589EA95E09093FC0552
:101F50008093FB0585EC90E09093FE058093FD0552
:101F600084EC90E0909300068093FF0580EC90E075
:101F7000909302068093010681EC90E09093040612
:101F80008093030682EC90E090930606809305060A
:101F900086EC90E0909308068093070684E0809397
:101FA000090683E080930A0687E080930B0685E0AC
:101FB00080930C0681E080930D060895CF93DF9304
:101FC0000E94AA0C0E94430BC7E0DEE00E94200B97
:101FD0002097E1F30E94070EF9CF0E944011089567
:101FE000CF92DF92EF92FF920F931F93CF93DF93E5
:101FF0007C016B018A01C0E0D0E00FC0D6016D9179
:102000006D01D701ED91FC910190F081E02DC701A8
:102010000995C80FD91F015010400115110571F71E
:10202000CE01DF91CF911F910F91FF90EF90DF9044
:10203000CF900895CF93DF93EC016115710519F4EA
:1020400020E030E00FC0DB010D900020E9F7119790
:10205000A61BB70BE881F9810280F381E02DAD0169
:1020600009959C01C901DF91CF9108954F925F922C
:102070007F928F929F92AF92BF92CF92DF92EF9218
:10208000FF920F931F93DF93CF93CDB7DEB7A19746
:102090000FB6F894DEBF0FBECDBF2C01742ECB015E
:1020A000223008F42AE019A231E2C32ED12CCC0E42
:1020B000DD1E822E9924AA24BB24672D752FA5012D
:1020C00094010E94171579018A01C801B701A50181
:1020D00094010E94E514472D461B0894C108D108BD
:1020E0004A3014F4405D01C0495CF6014083E114BC
:1020F000F1040105110521F07E2C5F2DC801DDCF13
:10210000C201B6010E941A10A1960FB6F894DEBF64
:102110000FBECDBFCF91DF911F910F91FF90EF9038
:10212000DF90CF90BF90AF909F908F907F905F9007
:102130004F900895CF92DF92EF92FF920F931F93EB
:10214000CF93DF93EC016A017B012115310541F446
:10215000E881F9810190F081E02D642F09951FC07D
:102160002A303105D1F477FF17C0E881F981019059
:10217000F081E02D6DE209958C0144275527BA01C5
:102180004C195D096E097F09CE012AE00E943610C4
:102190009801280F391F04C02AE00E9436109C01C4
:1021A000C901DF91CF911F910F91FF90EF90DF90C8
:1021B000CF900895EF92FF920F931F937B019A01A6
:1021C0000027F7FC0095102FB801A7010E949A1074
:1021D0001F910F91FF90EF9008950E941A1008959B
:1021E000CF93DF93EC010E94430C688779878A873D
:1021F0009B87E881F9810680F781E02DCE01099562
:102200009C0197FF15C00E94430C288539854A859B
:102210005B85621B730B840B950B2C813D814E817A
:102220005F81621773078407950718F32FEF3FEF5D
:10223000C901DF91CF910895CF92DF92EF92FF9283
:102240000F931F93CF93DF936C018B017A01C0E052
:10225000D0E009C0C6010E94F01097FD07C0F80148
:1022600081938F012196CE15DF05A0F3CE01DF917A
:10227000CF911F910F91FF90EF90DF90CF90089535
:102280000F931F93CF93DF93BC018230910510F41D
:1022900062E070E0E0911106F0911206A0E0B0E07B
:1022A00040E050E024C08081918186179707D0F0EC
:1022B0008617970771F482819381109729F01396FE
:1022C0009C938E9312972CC09093120680931106C4
:1022D00027C04115510519F08417950718F4EF012F
:1022E0008D01AC01DF01828193819C01F90130975E
:1022F000D1F641155105F9F0CA01861B970B8430C0
:10230000910580F48A819B810115110521F0F80166
:102310009383828304C09093120680931106FE017A
:10232000329645C0FE01E80FF91F61937193029741
:10233000998388833CC080910F0690911006892B69
:1023400041F4809123019091240190931006809391
:102350000F0640912501509126014115510541F488
:102360004DB75EB78091210190912201481B590B16
:1023700020910F063091100624173507B0F4CA01DA
:10238000821B930B8617970780F0AB014E5F5F4F60
:102390008417950750F0420F531F50931006409337
:1023A0000F06F9016193719302C0E0E0F0E0CF0104
:1023B000DF91CF911F910F910895CF93DF939C01EF
:1023C000009709F48FC0EC0122971B821A8260915A
:1023D0001106709112066115710581F48881998149
:1023E000820F931F20910F0630911006281739078E
:1023F00039F5D0931006C0930F0674C0DB0140E09E
:1024000050E0AC17BD0708F1BB83AA83FE01219100
:102410003191E20FF31FAE17BF0779F48D919C91B4
:102420001197280F391F2E5F3F4F3983288312964B
:102430008D919C9113979B838A834115510571F46B
:10244000D0931206C09311064DC012968D919C91A7
:102450001397AD01009711F0DC01D3CFDA01139689
:10246000DC93CE931297FA0121913191E20FF31F81
:10247000CE17DF0769F488819981280F391F2E5FF5
:102480003F4FFA01318320838A819B81938382832A
:10249000E0E0F0E0DB0112968D919C91139700979C
:1024A00019F0BC01FD01F6CFAB014E5F5F4FDB01C0
:1024B0008D919C91840F951F20910F0630911006ED
:1024C0002817390779F4309729F4109212061092E0
:1024D000110602C0138212824250504050931006DF
:1024E00040930F06DF91CF9108955058BB27AA273C
:1024F0000ED0B3C1A4D130F0A9D120F031F49F3F68
:1025000011F41EF499C10EF4E095E7FB64C1E92FC4
:10251000B5D180F3BA17620773078407950718F0DF
:1025200071F49EF5E4C10EF4E0950B2EBA2FA02DA8
:102530000B01B90190010C01CA01A0011124FF2770
:10254000591B99F0593F50F4503E68F11A16F0406B
:10255000A22F232F342F4427585FF3CF469537956A
:102560002795A795F0405395C9F77EF41F16BA0B2F
:10257000620B730B840BBAF09150A1F0FF0FBB1FDD
:10258000661F771F881FC2F70EC0BA0F621F731F26
:10259000841F48F4879577956795B795F7959E3F83
:1025A00008F0B3CF9395880F08F09927EE0F979511
:1025B00087950895ECD008F481E008950CD04DC1C2
:1025C00045D140F03CD130F021F45F3F19F003C118
:1025D00051118EC131C152D198F39923C9F35523BA
:1025E000B1F3951B550BBB27AA2762177307840706
:1025F00038F09F5F5F4F220F331F441FAA1FA9F3BC
:1026000033D00E2E3AF0E0E830D091505040E695AD
:10261000001CCAF729D0FE2F27D0660F771F881F0E
:10262000BB1F261737074807AB07B0E809F0BB0BFD
:10263000802DBF01FF2793585F4F2AF09E3F510521
:1026400068F0C9C055C15F3FECF3983EDCF3869556
:1026500077956795B795F7959F5FC9F7880F911D97
:102660009695879597F90895E1E0660F771F881F83
:10267000BB1F621773078407BA0720F0621B730B36
:10268000840BBA0BEE1F88F7E095089504D0689488
:10269000B1112EC10895FAD088F09F5790F0B92F4C
:1026A0009927B751A0F0D1F0660F771F881F991FA7
:1026B0001AF0BA95C9F712C0B13081F018D1B1E063
:1026C000089515C1672F782F8827B85F39F0B93F73
:1026D000CCF3869577956795B395D9F73EF49095A9
:1026E0008095709561957F4F8F4F9F4F0895E89427
:1026F00009C097FB3EF490958095709561957F4F4A
:102700008F4F9F4F9923A9F0F92F96E9BB279395F7
:10271000F695879577956795B795F111F8CFFAF407
:10272000BB0F11F460FF1BC06F5F7F4F8F4F9F4F38
:1027300016C0882311F096E911C0772321F09EE896
:10274000872F762F05C0662371F096E8862F70E0FC
:1027500060E02AF09A95660F771F881FDAF7880FD6
:102760009695879597F90895ABD080F09F3740F400
:1027700091110EF0BDC060E070E080E89FEB08951D
:1027800026F41B16611D711D811D2BC045C0990FBC
:102790000008550FAA0BE0E8FEEF16161706E8072B
:1027A000F907C0F012161306E407F50798F0621B4C
:1027B000730B840B950B39F40A2661F0232B242B21
:1027C000252B21F408950A2609F4A140A6958FEF40
:1027D000811D811D089597F99F6780E870E060E092
:1027E0000895882371F4772321F09850872B762F52
:1027F00007C0662311F499270DC09051862B70E015
:1028000060E02AF09A95660F771F881FDAF7880F25
:102810009695879597F908959F3F49F0915028F430
:10282000869577956795B7959F5F80389F4F880FFE
:102830009695879597F908959FEF80EC0895002469
:102840000A941616170618060906089500240A9415
:1028500012161306140605060895092E0394000C9B
:1028600011F4882352F0BB0F40F4BF2B11F460FF2A
:1028700004C06F5F7F4F8F4F9F4F089557FD905853
:10288000440F551F59F05F3F71F04795880F97FB34
:10289000991F61F09F3F79F08795089512161306EE
:1028A0001406551FF2CF4695F1DF08C0161617061D
:1028B0001806991FF1CF8695710561050894089552
:1028C000E5DFA0F0BEE7B91788F4BB279F3860F4B6
:1028D0001616B11D672F782F8827985FF7CF86953A
:1028E00077956795B11D93959639C8F30895E89447
:1028F000BB2766277727CB0197F9089548DF08F4AF
:102900008FEF08950BD0A9CF9ADF28F09FDF18F042
:10291000952309F060CF90CF1124EACFAFDFA0F369
:10292000959FD1F3950F50E0551F629FF001729F64
:10293000BB27F00DB11D639FAA27F00DB11DAA1F83
:10294000649F6627B00DA11D661F829F2227B00DD0
:10295000A11D621F739FB00DA11D621F839FA00D5B
:10296000611D221F749F3327A00D611D231F849FAB
:10297000600D211D822F762F6A2F11249F57504002
:102980008AF0E1F088234AF0EE0FFF1FBB1F661F9D
:10299000771F881F91505040A9F79E3F510570F056
:1029A0001ACFA6CF5F3FECF3983EDCF38695779580
:1029B0006795B795F795E7959F5FC1F7FE2B880F51
:1029C000911D9695879597F90895629FD001739F01
:1029D000F001829FE00DF11D649FE00DF11D929FBB
:1029E000F00D839FF00D749FF00D659FF00D9927FA
:1029F000729FB00DE11DF91F639FB00DE11DF91F1E
:102A0000BD01CF011124089597FB092E07260AD096
:102A100077FD04D02ED006D000201AF47095619571
:102A20007F4F0895F6F7909581959F4F0895A1E205
:102A30001A2EAA1BBB1BFD010DC0AA1FBB1FEE1F38
:102A4000FF1FA217B307E407F50720F0A21BB30B83
:102A5000E40BF50B661F771F881F991F1A9469F7FF
:102A600060957095809590959B01AC01BD01CF015B
:102A70000895AA1BBB1B51E107C0AA1FBB1FA617C5
:102A8000B70710F0A61BB70B881F991F5A95A9F717
:102A900080959095BC01CD010895EE0FFF1F059024
:0A2AA000F491E02D0994F894FFCFA3
:102AAA00556E6B6E6F776E20636F6D6D616E64002D
:102ABA00536574476574206661756C740001000182
:102ACA000080001306000000000000DFE79D38DFE9
:102ADA00E71D3900A2B139C8E11D3AA7A9763A988B
:102AEA0092B13A1AA8F13A71C91D3B0AA8473B3C70
:102AFA006E763B1D0D953B0255B13BB60DD03B0B97
:102B0A0036F13B5C660A3C30681D3CC59F313C543B
:102B1A000C473C09AD5D3C0481753CAE43873C8C57
:102B2A005F943C9C13A23C555FB03C2A42BF3C8A4E
:102B3A00BBCE3CDACADE3C7E6FEF3C6754003D12E6
:102B4A003B093D676B123D0CE51B3DA3A7253DCC18
:102B5A00B22F3D23063A3D43A1443DC3834F3D383E
:102B6A00AD5A3D331D663D44D3713DF6CE7D3DEAF7
:102B7A0007853DB34A8B3D97AF913D5836983DB591
:102B8A00DE9E3D6CA8A53D3B93AC3DDD9EB33D0C5E
:102B9A00CBBA3D8217C23DF783C93D2110D13DB75B
:102BAA00BBD83D6C86E03DF36FE83DFE77F03D3FD4
:102BBA009EF83D3271003E0EA2043E8AE1083E7D37
:102BCA002F0D3EBB8B113E1AF6153E6E6E1A3E8BCA
:102BDA00F41E3E4488233E6D29283ED7D72C3E5406
:102BEA0093313EB65B363ECE303B3E6B12403E5D85
:102BFA0000453E75FA493E80004F3E4E12543EABA8
:102C0A002F593E66585E3E4C8C633E2ACB683ECBBB
:102C1A00146E3EFB68733E86C7783E38307E3E6D42
:102C2A00D1813E9B8F843E8B52873E231A8A3E4631
:102C3A00E68C3ED9B68F3EC08B923EDF64953E1B32
:102C4A0042983E56239B3E75089E3E5BF1A03EEBA2
:102C5A00DDA33E09CEA63E96C1A93E77B8AC3E8E0C
:102C6A00B2AF3EBDAFB23EE7AFB53EEFB2B83EB689
:102C7A00B8BB3E20C1BE3E0DCCC13E60D9C43EFBAE
:102C8A00E8C73EC0FACA3E900ECE3E4C24D13ED78B
:102C9A003BD43E1355D73EDF6FDA3E1E8CDD3EB283
:102CAA00A9E03E7AC8E33E59E8E63E3009EA3EDF4B
:102CBA002AED3E494DF03E4D70F33ECD93F63EABC4
:102CCA00B7F93EC6DBFC3E0000003F1D92013F2BD8
:102CDA0024033F19B6043FD947063F5CD9073F9002
:102CEA006A093F68FB0A3FD38B0C3FC31B0E3F2781
:102CFA00AB0F3FF139113F10C8123F7755143F14FB
:102D0A00E2153FDA6D173FB8F8183FA0821A3F82E2
:102D1A000B1C3F50931D3FF9191F3F709F203FA581
:102D2A0023223F88A6233F0C28253F22A8263FB905
:102D3A0026283FC5A3293F351F2B3FFC982C3F0A65
:102D4A00112E3F52872F3FC5FB303F556E323FF35E
:102D5A00DE333F904D353F20BA363F9424383FDD6D
:102D6A008C393FEFF23A3FBA563C3F33B83D3F4ABF
:102D7A00173F3FF273403F1ECE413FC125433FCD2F
:102D8A007A443F36CD453FED1C473FE669483F153B
:102D9A00B4493F6DFB4A3FE03F4C3F63814D3FE9F9
:102DAA00BF4E3F65FB4F3FCD33513F1269523F2B18
:102DBA009B533F0ACA543FA5F5553FEF1D573FDDC8
:102DCA0042583F6564593F7A825A3F119D5B3F21C1
:102DDA00B45C3F9DC75D3F7DD75E3FB4E35F3F383C
:102DEA00EC603F00F1613F02F2623F33EF633F89DB
:102DFA00E8643FFCDD653F81CF663F10BD673F9FBA
:102E0A00A6683F248C693F996D6A3FF24A6B3F2955
:102E1A00246C3F35F96C3F0DCA6D3FAA966E3F038D
:102E2A005F6F3F1123703FCCE2703F2D9E713F2DA3
:102E3A0055723FC407733FECB5733F9E5F743FD32F
:102E4A0004753F86A5753FAF41763F4AD9763F4F15
:102E5A006C773FBAFA773F8484783FA909793F248F
:102E6A008A793FEF057A3F057D7A3F63EF7A3F041F
:102E7A005D7B3FE3C57B3FFC297C3F4C897C3FCF90
:102E8A00E37C3F81397D3F5F8A7D3F67D67D3F94F2
:102E9A001D7E3FE55F7E3F569D7E3FE6D57E3F9293
:102EAA00097F3F58387F3F37627F3F2C877F3F3704
:102EBA00A77F3F56C27F3F88D87F3FCCE97F3F221A
:102ECA00F67F3F88FD7F3F0000000200000000FA05
:102EDA000AC70A650A7D0A4D0A510A550AAE0A004E
:102EEA00000000460FF00FDC0E0D0FED0E360F003E
:00000001FF
