:100000000C9478000C9473050C94A0050C94F802E1
:100010000C9425030C9452030C94A0000C94A000A3
:100020000C94A0000C94A0000C94A0000C94A000D0
:100030000C94A0000C94A0000C94A0000C94A000C0
:100040000C94B40B0C94A0000C94B4060C9402070E
:100050000C94A0000C94A0000C94A0000C94A000A0
:100060000C94A0000C94A000676F74203020005303
:10007000544F50204D4F544F5221200020005265C4
:1000800063656976656420636F6D6D616E643A20A7
:100090000000000000240027002A000000000025C6
:1000A0000028002B00000000002300260029000487
:1000B000040404040404040202020202020303030F
:1000C0000303030102040810204080010204081009
:1000D00020010204081020000000070002010000B7
:1000E0000304060000000000000000007F036E080B
:1000F00011241FBECFEFD8E0DEBFCDBF11E0A0E0DE
:10010000B1E0ECE1F9E102C005900D92A437B1072E
:10011000D9F712E0A4E7B1E001C01D92A237B10700
:10012000E1F710E0C0EFD0E004C02297FE010E948A
:10013000880CCC3ED107C9F70E94C4080C94A401D6
:100140000C940000CF93DF93BC018230910510F432
:1001500062E070E0A0917002B0917102ED0140E0A8
:1001600050E0E0E0F0E021C0888199818617970790
:1001700069F48A819B81309719F09383828304C04C
:100180009093710280937002FE0134C06817790762
:1001900038F44115510519F08417950708F4AC019E
:1001A000FE018A819B819C01E9012097E9F64115B6
:1001B0005105A9F1CA01861B970B049708F4BA01EF
:1001C000E0E0F0E02AC08D919C911197841795078B
:1001D000F9F46417750781F412968D919C91139729
:1001E000309719F09383828304C0909371028093B7
:1001F0007002FD0132964CC0CA01861B970BFD01AF
:10020000E80FF91F6193719302978D939C9340C0FF
:10021000FD01828193819C01D9011097A1F6809103
:100220006E0290916F02892B41F480915F01909151
:10023000600190936F0280936E0240916101509132
:1002400062014115510541F44DB75EB780915D01E2
:1002500090915E01481B590B20916E0230916F0204
:10026000CA01821B930B8617970780F0AB014E5F84
:100270005F4F8417950750F0420F531F50936F0242
:1002800040936E02F9016193719302C0E0E0F0E0E7
:10029000CF01DF91CF910895CF93DF93009709F4B9
:1002A00050C0EC0122971B821A82A0917002B0917B
:1002B0007102109709F140E050E0AC17BD0708F15A
:1002C000BB83AA83FE0121913191E20FF31FAE1788
:1002D000BF0779F48D919C911197280F391F2E5FDC
:1002E0003F4F3983288312968D919C9113979B835E
:1002F0008A834115510571F4D0937102C093700245
:1003000020C012968D919C911397AD01009711F02A
:10031000DC01D3CFFA01D383C28321913191E20F63
:10032000F31FCE17DF0769F488819981280F391FE1
:100330002E5F3F4FFA01318320838A819B81938313
:100340008283DF91CF910895F8940C948C0C0895DA
:10035000FC018789908D0895FC018589968908950F
:10036000FC01768B658B0895FC01748B638B08967A
:100370000E94440B08950F931F93CF93DF938C013A
:10038000EC012896CE0161E070E00E941F0B05C0D1
:10039000CE016CE97FEF0E94440BF801838D0E942F
:1003A0006006892BA9F3CE0161E070E00E941F0B6B
:1003B00081E090E0F801918B808B83E492E060E033
:1003C00071E00E942A0ADF91CF911F910F91089549
:1003D000CF93DF93EC0188899989892B81F42F8948
:1003E000388D8D899E89821793074CF483E492E0BF
:1003F00065E071E00E942A0ACE010E94BB01888953
:100400009989029781F42F89388D8D899E892817C3
:1004100039074CF483E492E060E171E00E942A0A1B
:10042000CE010E94BB01DF91CF910895CF93DF935E
:10043000EC0108966CE97FEF0E94440B8B8D8130B4
:1004400061F4888999890197E1F783E492E068E68D
:1004500070E00E944309188E1F8A198A188ADF915A
:10046000CF9108950E94720B08950F931F938C01F2
:10047000FC01838D60E00E94CD05F801848D62E06F
:100480000E94CD05F801168A158A148A138A1F91D5
:100490000F910895DF92EF92FF920F931F937C01CB
:1004A000D62E122F0E94FB0AC70108960E940D0B40
:1004B000F701138F048F8D2D67EA71E043E050E060
:1004C0000E9450051F910F91FF90EF90DF900895CB
:1004D000CF93DF93EC01DB0112962C9312971196C8
:1004E0005C934E93EA81FB81808113969C911397D4
:1004F000892B808312968C911297833011F0813072
:1005000031F48D8113969C911397892B8D831296CC
:100510008C9112978150823028F48E8113969C9191
:10052000892B8E83809168009C81892B8093680041
:10053000DF91CF910895EF92FF920F931F93CF9386
:10054000DF938C0150917401D80117962C91179765
:1005500015964C9115979091740116963C911697AB
:1005600080917401809583239423892B25278223EE
:100570009091740117969C9317971896CD91DC91E2
:100580001997E82EFF241CC08B81282F30E0C7016B
:1005900082239323892B89F08091740140E090E0BD
:1005A00082239323892B09F041E0409376018C81CB
:1005B00080937501E881F98109950D80DE81C02D58
:1005C000209711F78BB3F8019481892351F08BB3F5
:1005D000892B8BBB0190F081E02D80818093740189
:1005E000B1CFDF91CF911F910F91FF90EF900895C0
:1005F0001F920F920FB60F9211242F933F934F9398
:100600005F936F937F938F939F93AF93BF93EF937A
:10061000FF93E0917701F0917801808180937401DC
:1006200087E791E00E949B02FF91EF91BF91AF910C
:100630009F918F917F916F915F914F913F912F91FA
:100640000F900FBE0F901F9018951F920F920FB62C
:100650000F9211242F933F934F935F936F937F9348
:100660008F939F93AF93BF93EF93FF93E09181019B
:10067000F091820180818093740181E891E00E9471
:100680009B02FF91EF91BF91AF919F918F917F91CD
:100690006F915F914F913F912F910F900FBE0F90EF
:1006A0001F9018951F920F920FB60F9211242F933F
:1006B0003F934F935F936F937F938F939F93AF93EA
:1006C000BF93EF93FF93E0918B01F0918C018081B8
:1006D000809374018BE891E00E949B02FF91EF915F
:1006E000BF91AF919F918F917F916F915F914F914A
:1006F0003F912F910F900FBE0F901F9018950F9361
:100700001F93E9EAF0E085919491909378018093AA
:1007100077018BE690E090937A018093790181E0F4
:1007200080937B0110927C0110927D0110928001D8
:1007300010927F01EBEAF0E0859194919093820111
:10074000809381018CE690E09093840180938301F3
:1007500082E08093850110928601109287011092A9
:100760008A0110928901EDEAF0E0859194919093CD
:100770008C0180938B018DE690E090938E018093A5
:100780008D0184E080938F0110929001109291016D
:10079000109294011092930185E991E060E070E07D
:1007A0004FE050E021E130E003E110E00E944A0216
:1007B0001F910F9108951F93182F83E492E06EE725
:1007C00070E00E94000983E492E0612F0E942E08ED
:1007D00083E492E06CE770E00E944309103719F55A
:1007E00083E492E069E171E00E942D0A85E991E0DD
:1007F0000E94A801BC0183E492E04AE050E00E941C
:10080000170A83E492E06BE271E00E942D0A85E909
:1008100091E00E94AC01BC0183E492E04AE050E028
:100820000E94170A4DC01D3691F483E492E00E94A5
:10083000F507892B19F460E070E004C083E492E0CE
:100840000E94F70A85E991E00E94B00139C01C3688
:1008500091F483E492E00E94F507892B19F460E09B
:1008600070E004C083E492E00E94F70A85E991E019
:100870000E94B40125C01E36B9F48091B2018823CC
:1008800049F083E492E06EE371E00E942A0A10923C
:10089000B20116C081E08093B20183E492E06DE47E
:1008A00071E00E942A0A0CC0133751F48091B30101
:1008B000882319F01092B30103C081E08093B30143
:1008C0001F91089583E492E00E94C407892B31F0C0
:1008D00083E492E00E94F5070E94DB038091B2015D
:1008E000882321F085E991E00E94E8018091B3011D
:1008F000882321F085E991E00E94160208950F9364
:100900001F936091B5017091B6016F5F7F4F709337
:10091000B6016093B50103E412E0C8014AE050E07B
:100920000E94170AC8016BE571E00E942A0A1F9114
:100930000F910895CF92DF92EF92FF920F931F9342
:10094000CF93DF938C01F62E6A01E22EFC01C08565
:10095000D185209789F08C818F1541F4C801BE01A3
:10096000A6012E2D0E94680280E03CC08D819E81F0
:10097000009731F0EC01EFCF80E090E09C01E901BD
:1009800087E090E00E94D308DC0111961C921E9231
:1009900012961C921297009711F48FEF23C01496B1
:1009A000FC9214971296EC92129716961C921E9235
:1009B0001597EF2DF0E0ED53FF4FE4911396EC9374
:1009C0001397F80180859185892B19F4B187A08749
:1009D00002C0BE83AD83C801BD01A6012E2D0E94B9
:1009E000680281E0DF91CF911F910F91FF90EF900E
:1009F000DF90CF900895582F9B01742FE82FF0E0DF
:100A0000E155FF4F8491882311F121153105F9F04B
:100A1000833051F0843059F0823019F4A7E7B1E007
:100A200008C0A0E0B0E005C0A1E8B1E002C0ABE8BA
:100A3000B1E0ED91FC911197808117968C931797F7
:100A4000CD01652FA901272F0E949A0408958FEFE9
:100A500008950F931F9383E492E040E052EC61E02D
:100A600070E00E943D0705E911E0C8010E943202D2
:100A7000C8010E94350281E060E00E94CD0581E05E
:100A800061E00E940C0682E06FE774E041E050E014
:100A90000E94FB0481E08093B2011F910F910895A1
:100AA000823000F5E82FF0E0EE0FFF1FE954FE4F13
:100AB00071836083882319F08130A1F408C080918C
:100AC00069008C7F842B80936900E89A0895809157
:100AD0006900440F551F440F551F837F842B80935B
:100AE0006900E99A08951F920F920FB60F92112490
:100AF0002F933F934F935F936F937F938F939F9326
:100B0000AF93BF93EF93FF938091B7019091B8019A
:100B1000892B29F0E091B701F091B8010995FF9177
:100B2000EF91BF91AF919F918F917F916F915F9165
:100B30004F913F912F910F900FBE0F901F901895DE
:100B40001F920F920FB60F9211242F933F934F9342
:100B50005F936F937F938F939F93AF93BF93EF9325
:100B6000FF938091B9019091BA01892B29F0E0910E
:100B7000B901F091BA010995FF91EF91BF91AF9141
:100B80009F918F917F916F915F914F913F912F91A5
:100B90000F900FBE0F901F901895CF93DF93482FA3
:100BA00050E0CA018D539F4FFC01349141555F4F76
:100BB000FA018491882369F190E0880F991FFC0164
:100BC000EF56FF4FA591B491FC01E556FF4FC5913B
:100BD000D491662351F42FB7F8948C91932F90956C
:100BE00089238C93888189230BC0623061F42FB7ED
:100BF000F8948C91932F909589238C938881832BE3
:100C000088832FBF06C09FB7F8948C91832B8C9359
:100C10009FBFDF91CF910895482F50E0CA018952BC
:100C20009F4FFC012491CA018D539F4FFC01949169
:100C300041555F4FFA013491332309F440C0222318
:100C400051F1233071F0243028F42130A1F022300A
:100C500011F514C02630B1F02730C1F02430D9F49A
:100C600004C0809180008F7703C0809180008F7DC9
:100C70008093800010C084B58F7702C084B58F7DCB
:100C800084BD09C08091B0008F7703C08091B0000F
:100C90008F7D8093B000E32FF0E0EE0FFF1FE5564D
:100CA000FF4FA591B4912FB7F894662321F48C914E
:100CB0009095892302C08C91892B8C932FBF089526
:100CC000682F70E0CB0189529F4FFC012491CB012A
:100CD0008D539F4FFC01449161557F4FFB019491CF
:100CE000992319F420E030E03CC0222351F1233055
:100CF00071F0243028F42130A1F0223011F514C015
:100D00002630B1F02730C1F02430D9F404C08091EE
:100D100080008F7703C0809180008F7D809380005A
:100D200010C084B58F7702C084B58F7D84BD09C0A3
:100D30008091B0008F7703C08091B0008F7D809349
:100D4000B000892F90E0880F991F8B559F4FFC01B1
:100D5000A591B4918C9120E030E0842311F021E042
:100D600030E0C901089508951F920F920FB60F92B7
:100D700011242F933F934F938F939F93EF93FF9360
:100D80008091C00082FD1DC04091C6002091FB01F2
:100D90003091FC012F5F3F4F2F7330708091FD0128
:100DA0009091FE012817390771F0E091FB01F09155
:100DB000FC01E554FE4F40833093FC012093FB017E
:100DC00002C08091C600FF91EF919F918F914F914A
:100DD0003F912F910F900FBE0F901F901895E091AB
:100DE0004F02F0915002E05CFF4F81919191208180
:100DF0003181821B930B8F739070892B11F00E94AD
:100E0000B30608951F920F920FB60F9211242F93DD
:100E10003F938F939F93EF93FF9320913F023091E5
:100E2000400280914102909142022817390731F423
:100E30008091C1008F7D8093C10014C0E091410278
:100E4000F0914202E150FE4F208180914102909149
:100E5000420201968F7390709093420280934102F8
:100E60002093C600FF91EF919F918F913F912F9119
:100E70000F900FBE0F901F901895AF92BF92DF9208
:100E8000EF92FF920F931F93CF93DF93EC017A01C0
:100E90008B01DD24403081EE580780E0680780E058
:100EA000780711F0DD24D39491E0A92EB12CEC89C0
:100EB000FD89DD2069F0C50108A002C0880F991FD7
:100EC0000A94E2F7808360E079E08DE390E005C06A
:100ED000108260E874E88EE190E0A80197010E941A
:100EE000640C21503040404050405695479537950E
:100EF000279580E12030380720F0DD2011F0DD2437
:100F0000D6CFE889F9893083EA89FB89208319A241
:100F1000EE89FF89408121E030E0C9010C8C02C0DC
:100F2000880F991F0A94E2F7482B4083EE89FF89C6
:100F30004081C9010D8C02C0880F991F0A94E2F705
:100F4000482B4083EE89FF894081C9010E8C02C085
:100F5000880F991F0A94E2F7482B4083EE89FF8996
:100F600080810F8C02C0220F331F0A94E2F7209574
:100F700028232083DF91CF911F910F91FF90EF9055
:100F8000DF90BF90AF900895DC011C96ED91FC912D
:100F90001D97E05CFF4F2191319180819181281B49
:100FA000390B2F733070C9010895DC011C96ED9147
:100FB000FC911D97E05CFF4F20813181E054F040AF
:100FC000DF01AE5BBF4F8D919C91119728173907B8
:100FD00019F42FEF3FEF07C08D919C91E80FF91F97
:100FE0008081282F30E0C9010895DC011C96ED9125
:100FF000FC911D97E05CFF4F20813181E054F0406F
:10100000DF01AE5BBF4F8D919C9111972817390777
:1010100019F42FEF3FEF10C08D919C911197E80FBD
:10102000F91F20818D919C91119701968F7390707B
:1010300011969C938E9330E0C9010895DC0191963E
:101040008C919197882339F05496ED91FC915597A6
:10105000808186FFF9CF91961C920895CF93DF93FC
:10106000EC01EE85FF85E05CFF4F20813181E0548B
:10107000F0402F5F3F4F2F733070DF01AE5BBF4FEB
:101080008D919C91119728173907D1F3E05CFF4FA0
:1010900080819181E054F040E80FF91F6083EE8574
:1010A000FF85E05CFF4F31832083EE89FF8920813B
:1010B00081E090E00F8C02C0880F991F0A94E2F73C
:1010C000282B208381E089A3EC89FD8980818064BD
:1010D000808381E090E0DF91CF91089510924602E5
:1010E0001092450288EE93E0A0E0B0E080934702C2
:1010F00090934802A0934902B0934A0287E691E098
:1011000090934402809343028BEB91E090935002C2
:1011100080934F028FEF91E090935202809351029F
:1011200085EC90E0909354028093530284EC90E01D
:10113000909356028093550280EC90E09093580271
:101140008093570281EC90E090935A028093590269
:1011500082EC90E090935C0280935B0286EC90E0DE
:1011600090935E0280935D0284E080935F0283E04F
:101170008093600287E08093610285E08093620241
:1011800081E0809363020895CF93DF930E940A0C5D
:101190000E942905CFEED6E00E9462042097E1F379
:1011A0000E94EF06F9CF0E94A2000895CF92DF922D
:1011B000EF92FF920F931F93CF93DF937C016B010C
:1011C0008A01C0E0D0E00FC0D6016D916D01D7015A
:1011D000ED91FC910190F081E02DC7010995C80FB8
:1011E000D91F015010400115110571F7CE01DF9193
:1011F000CF911F910F91FF90EF90DF90CF900895C6
:10120000EF92FF920F931F93CF93DF937C018B019B
:10121000C0E0D0E0F8010F5F1F4F6491662359F0E2
:10122000D701ED91FC910190F081E02DC701099566
:10123000C80FD91FEFCFCE01DF91CF911F910F9132
:10124000FF90EF900895EF92FF920F931F938C0100
:10125000DC01ED91FC910190F081E02D6DE00995AC
:101260007C01D801ED91FC910190F081E02DC80145
:101270006AE009959C012E0D3F1DC9011F910F9138
:10128000FF90EF900895EF92FF920F931F937C01D0
:101290000E9400098C01C7010E9423099C01200FB4
:1012A000311FC9011F910F91FF90EF900895CF93C7
:1012B000DF93EC016115710519F420E030E00FC0F7
:1012C000DB010D900020E9F71197A61BB70BE88111
:1012D000F9810280F381E02DAD0109959C01C901DE
:1012E000DF91CF9108954F925F927F928F929F925C
:1012F000AF92BF92CF92DF92EF92FF920F931F9324
:10130000DF93CF93CDB7DEB7A1970FB6F894DEBFCA
:101310000FBECDBF2C01742ECB01223008F42AE081
:1013200019A231E2C32ED12CCC0EDD1E822E9924BF
:10133000AA24BB24672D752FA50194010E94640C7B
:1013400079018A01C801B701A50194010E94450CE9
:10135000472D461B0894C108D1084A3014F4405D5B
:1013600001C0495CF6014083E114F1040105110557
:1013700021F07E2C5F2DC801DDCFC201B6010E9495
:101380005709A1960FB6F894DEBF0FBECDBFCF911F
:10139000DF911F910F91FF90EF90DF90CF90BF9062
:1013A000AF909F908F907F905F904F900895CF92D5
:1013B000DF92EF92FF920F931F93CF93DF93EC0195
:1013C0006A017B012115310541F4E881F981019021
:1013D000F081E02D642F09951FC02A303105D1F42A
:1013E00077FF17C0E881F9810190F081E02D6DE26F
:1013F00009958C0144275527BA014C195D096E09DE
:101400007F09CE012AE00E9473099801280F391F35
:1014100004C02AE00E9473099C01C901DF91CF91A9
:101420001F910F91FF90EF90DF90CF900895EF9272
:10143000FF920F931F937B019A010027F7FC009501
:10144000102FB801A7010E94D7091F910F91FF909B
:10145000EF9008950E9457090895EF92FF920F931D
:101460001F937C010E9457098C01C7010E94230928
:10147000080F191FC8011F910F91FF90EF90089559
:10148000CF93DF93EC010E94FC0B688779878A87F2
:101490009B87E881F9810084F185E02DCE010995D3
:1014A0009C0197FF15C00E94FC0B288539854A8551
:1014B0005B85621B730B840B950B2C813D814E81E8
:1014C0005F81621773078407950718F32FEF3FEFCB
:1014D000C901DF91CF910895CF93DF93EC01CE0145
:1014E0000E94400A9C0197FD0EC08D32910559F073
:1014F000C0970A9740F0E881F9810680F781E02DD6
:10150000CE010995ECCFC901DF91CF9108959F924B
:10151000AF92BF92CF92DF92EF92FF920F931F9301
:10152000CF93DF936C01B62E0E946C0AEC0197FFFB
:1015300004C0EE24FF2487014CC09924EE24FF242C
:101540008701AB2CBB24A7FCB094CA15DB0529F19D
:10155000CD32D10519F4992493941FC0CE01C097C0
:101560000A97D8F4C801B7012AE030E040E050E023
:101570000E94450C7B018C01CE01AA2797FDA09506
:10158000BA2FE80EF91E0A1F1B1F80ED9FEFAFEF69
:10159000BFEFE80EF91E0A1F1B1FD601ED91FC914B
:1015A0000680F781E02DC6010995C6010E94400A18
:1015B000EC01C0970A9748F2CA15DB0531F2992071
:1015C00041F010950095F094E094E11CF11C011D90
:1015D000111DB701C801DF91CF911F910F91FF90AD
:1015E000EF90DF90CF90BF90AF909F90089561E013
:1015F0000E94870A0895FC0185E0808384E081834E
:1016000086E082838EE0838387E0848388E085831D
:101610008CE086838FE087830895FC0185E08083DA
:1016200084E0818386E082838EE0838387E0848305
:1016300088E085838CE086838FE0878308950F930D
:101640001F93CF93DF938C01EB0177FF03C0D095FD
:10165000C195DF4FF801848160E00E940C06F8011B
:10166000858160E00E940C06CE01F1E0C139DF0700
:1016700014F080E991E090938B0080938A00DF91D1
:10168000CF911F910F910895CF93DF93EC0177FDD8
:1016900002C080E004C0709561957F4F81E091E0C9
:1016A0006139790714F060E971E070938B00609301
:1016B0008A00672B19F48C8160E00BC0882339F015
:1016C0008C8160E00E940C068D8161E006C08C81F7
:1016D00061E00E940C068D8160E00E940C06DF91A3
:1016E000CF9108950F931F938C01FC01808161E0DD
:1016F0000E94CD05F801818161E00E94CD0589E05D
:1017000061E00E94CD05F801828160E00E94CD0574
:10171000F801838160E00E94CD05F801848161E0D9
:101720000E94CD05F801858161E00E94CD058AE027
:1017300061E00E94CD05F801868160E00E94CD0540
:10174000F801878160E00E94CD0580EA80938000E7
:1017500081E18093810080E991E0909387008093FC
:1017600086001F910F9108951F920F920FB60F924E
:1017700011242F933F938F939F93AF93BF938091A7
:10178000690290916A02A0916B02B0916C02309153
:101790006D020196A11DB11D232F2D5F2D3720F065
:1017A0002D570196A11DB11D20936D0280936902F2
:1017B00090936A02A0936B02B0936C0280916502D1
:1017C00090916602A0916702B09168020196A11DF6
:1017D000B11D8093650290936602A0936702B09357
:1017E0006802BF91AF919F918F913F912F910F9080
:1017F0000FBE0F901F9018958FB7F8942091690233
:1018000030916A0240916B0250916C028FBFB90116
:10181000CA010895789484B5826084BD84B58160DE
:1018200084BD85B5826085BD85B5816085BDEEE6E8
:10183000F0E0808181608083E1E8F0E010828081C7
:1018400082608083808181608083E0E8F0E0808135
:1018500081608083E1EBF0E0808184608083E0EB55
:10186000F0E0808181608083EAE7F0E0808184603D
:101870008083808182608083808181608083808199
:10188000806880831092C1000895629FD001739F89
:10189000F001829FE00DF11D649FE00DF11D929F0C
:1018A000F00D839FF00D749FF00D659FF00D99274B
:1018B000729FB00DE11DF91F639FB00DE11DF91F6F
:1018C000BD01CF0111240895A1E21A2EAA1BBB1B52
:1018D000FD010DC0AA1FBB1FEE1FFF1FA217B307FC
:1018E000E407F50720F0A21BB30BE40BF50B661F12
:1018F000771F881F991F1A9469F7609570958095D6
:1019000090959B01AC01BD01CF010895EE0FFF1F23
:0C1910000590F491E02D0994F894FFCFAD
:10191C005A45524F00476F696E6420646F776E00B2
:10192C00676F696E67207570006C6566744D6F74B7
:10193C006F72436F756E74203A20006C6566744D3F
:10194C006F746F72746172676574203A2000506F07
:10195C00736974696F6E2046616C736500506F73A8
:10196C006974696F6E2054727565002000200072D6
:10197C00020000000000002E08D608C407F507D5A9
:04198C00071E08002A
:00000001FF
