:100000001BC035C034C033C032C031C030C02FC077
:100010002EC02DC02CC02BC02AC029C028C0EAC0C9
:100020000FC123C13DC1B6C165C168C18DC18FC1BA
:10003000B1C1BEC1C2C1C7C111241FBECFE5D1E04D
:10004000DEBFCDBF10E0A0E6B0E0E0E2F4E002C029
:1000500005900D92A636B107D9F720E0A6E6B0E0EC
:1000600001C01D92AA3DB207E1F7C3D1D7C1C8CFE5
:1000700049B3406F4095242F2470332727FD3095D6
:100080003595279543FB332730F9232B342F3270D6
:10009000330F322B842F817090E023E0880F991F5B
:1000A0002A95E1F7832B0895282FCB01223051F0B8
:1000B00018F4213031F00895233029F0243021F054
:1000C000089512C03DC037C01CC0D59ADD9880E2AB
:1000D0008FBD81E18EBD8FEF9FE095BD84BD8FEF19
:1000E00090E099BD88BD0895811520E1920710F038
:1000F0008FEF9FE090936A008093690099BD88BD5F
:1001000008952FEF3FE039BD28BD20E030E02817EB
:10011000390749F0EFE4F3EC3197F1F700C0000044
:100120002F5F3F4FF4CF8091690090916A0099BD95
:1001300088BD08950895909368008093670008959E
:100140009093650080936400089580916900909178
:100150006A000895809167009091680008958091E9
:100160006400909165000895809170008F5F809386
:100170007000E0917000F0E0ED56FF4F808108952F
:10018000E0917000F0E0EE0FFF1FE755FF4F808118
:10019000918108952091A3009091700081E029132E
:1001A00001C080E0089580936F0008951092A3002D
:1001B000109270001092A400109271000895CF93D5
:1001C000DF931F92CDB7DEB78983F0DFDC9ADE9A2A
:1001D000D49AD698898180936F0098EA9DB980EF70
:1001E0008EB91FB8D69AD4989DB98EB90F90DF9169
:1001F000CF9108951F920F920FB60F9211248F93F3
:1002000019BC18BC1092A7001092A600CC9B02C08B
:10021000CE9BFCCFDE9B07C01FB8D69AD49888EA45
:100220008DB980EF04C01FB880EE8DB980E78EB91C
:1002300080EF8EB98F910F900FBE0F901F90189581
:100240001F920F920FB60F9211242F938F939F93AB
:10025000EF93FF93E091A600F091A700EB30F1053A
:1002600008F0BDC0EF5EFF4F09948FB1882331F0D5
:100270008FB1869590916F00891370C0789B03C0F1
:1002800085E090E08CC081E090E09093A70080939F
:10029000A6001FB8D69A8EEE8EB910926C009FC041
:1002A00080916C00813099F078F0823099F0833041
:1002B00009F050C01092A7001092A60080916C0027
:1002C0008F5F80936C004AC082E090E005C083E0BD
:1002D00090E002C084E090E09093A7008093A60095
:1002E00080916C008F5F80936C001FB880EE8DB999
:1002F00080E75CC08FB18093C9004FC08FB18093FD
:10030000A50081E090E09093A7008093A6008091E3
:10031000A3008F5F8093A300E091A3008091A800C9
:10032000F0E0ED56FF4F8083E091A3002091A500FF
:100330008091C900F0E0EE0FFF1FE755FF4F90E0FE
:10034000922B918380832FC087E090E044C08FB1CF
:10035000882359F01092A7001092A6001FB8D69AD1
:10036000D49888EA8DB980EF21C080916B008130EC
:1003700059F038F0823059F01092A7001092A60080
:100380002EC088E090E027C089E090E024C08AE099
:1003900090E021C08FB18093A80081E090E090931D
:1003A000A7008093A6001FB8D69A8EEE8EB917C00C
:1003B0001092A8008091A8000BC081E08093C90032
:1003C0008091C90005C082E08093A5008091A500BE
:1003D0008FB986E090E09093A7008093A600FF91EC
:1003E000EF919F918F912F910F900FBE0F901F90C3
:1003F0001895F8948BB38F608BBB67DE82E0D3DEF9
:100400007894C8DE882339F0AFDEC82FB9DEBC018E
:100410008C2F4ADEF6CF00008DDEF3CFF894FFCFAD
:060420000000803FFFFF19
:00000001FF
