:100000001BC035C034C033C032C031C030C02FC077
:100010002EC02DC02CC02BC02AC029C028C09BC018
:10002000C4C0D8C0F2C06BC11AC11DC142C144C115
:1000300066C173C177C17CC111241FBECFE5D1E079
:10004000DEBFCDBF10E0A0E6B0E0E2E2F4E002C027
:1000500005900D92A636B107D9F720E0A6E6B0E0EC
:1000600001C01D92A93DB207E1F7C4D1D8C1C8CFE4
:1000700049B3406F4095242F2470332727FD3095D6
:100080003595279543FB332730F9232B342F3270D6
:10009000330F322B842F817090E023E0880F991F5B
:1000A0002A95E1F7832B0895282FCB01223051F0B8
:1000B00018F4213031F00895233029F0243021F054
:1000C000089559C183C17DC163C180916F008F5F65
:1000D00080936F00E0916F00F0E0EE56FF4F80815B
:1000E0000895E0916F00F0E0EE0FFF1FE855FF4F1D
:1000F0008081918108952091A20090916F0081E00C
:10010000291301C080E00895809371000895109232
:10011000A20010926F001092A30010927000089538
:10012000CF93DF931F92CDB7DEB78983F0DFDC9AE0
:10013000DE9AD49AD69889818093710098EA9DB905
:1001400080EF8EB91FB8D69AD4989DB98EB90F900A
:10015000DF91CF9108951F920F920FB60F92112445
:100160008F939F938FEF9FE099BD88BD1092A6005B
:100170001092A500CC9B02C0CE9BFCCFDE9B07C09B
:100180001FB8D69AD49888EA8DB980EF04C01FB8FA
:1001900080EE8DB980E78EB980EF8EB99F918F91F7
:1001A0000F900FBE0F901F9018951F920F920FB6D1
:1001B0000F9211242F938F939F93EF93FF93E091CE
:1001C000A500F091A600EB30F10508F0BDC0EF5E90
:1001D000FF4F09948FB1882331F08FB186959091AC
:1001E0007100891370C0789B03C085E090E08CC0DB
:1001F00081E090E09093A6008093A5001FB8D69A66
:100200008EEE8EB9109267009FC08091670081309A
:1002100099F078F0823099F0833009F050C0109254
:10022000A6001092A500809167008F5F8093670001
:100230004AC082E090E005C083E090E002C084E024
:1002400090E09093A6008093A500809167008F5F57
:10025000809367001FB880EE8DB980E75CC08FB1D6
:100260008093C8004FC08FB18093A40081E090E0DC
:100270009093A6008093A5008091A2008F5F809349
:10028000A200E091A2008091A700F0E0EE56FF4F9F
:100290008083E091A2002091A4008091C800F0E04A
:1002A000EE0FFF1FE855FF4F90E0922B9183808364
:1002B0002FC087E090E044C08FB1882359F010929E
:1002C000A6001092A5001FB8D69AD49888EA8DB9D6
:1002D00080EF21C080916600813059F038F0823083
:1002E00059F01092A6001092A5002EC088E090E070
:1002F00027C089E090E024C08AE090E021C08FB15F
:100300008093A70081E090E09093A6008093A500E1
:100310001FB8D69A8EEE8EB917C01092A7008091A2
:10032000A7000BC081E08093C8008091C80005C081
:1003300082E08093A4008091A4008FB986E090E0D1
:100340009093A6008093A500FF91EF919F918F91CC
:100350002F910F900FBE0F901F901895D59ADD9892
:1003600080E28FBD81E18EBD8FEF9FE095BD84BDA2
:1003700019BC18BC0895811520E1920710F08FEF89
:100380009FE090936C0080936B0099BD88BD0895A9
:100390002FEF3FE039BD28BD20E030E028173907B6
:1003A00049F0EFE4F3EC3197F1F700C000002F5F64
:1003B0003F4FF4CF80916B0090916C0099BD88BD48
:1003C000089590936A008093690008959093650062
:1003D00080936400089580916B0090916C00089563
:1003E0008091690090916A000895809164009091D5
:1003F000650008958BB38F608BBBB0DF39DE90DE74
:10040000789479DE882339F060DEC82F6ADEBC017B
:100410008C2F4ADEF6CF00002BDE76DEF2CFF8948A
:02042000FFCF0C
:060422000000803FFFFF17
:00000001FF
