:1000000010C02AC029C028C027C026C025C024C0CF
:1000100023C022C021C020C01FC01EC01DC02AC0D6
:1000200046C011241FBECFE5D1E0DEBFCDBF10E03A
:10003000A0E6B0E0E6E7F2E002C005900D92A4363B
:10004000B107D9F720E0A4E6B0E001C01D92AE37B9
:10005000B207E1F7CBD00DC1D3CF0895DC98DE987D
:1000600080936F008AB38F7A8ABB88EA8DB980EF5C
:100070008EB908951F920F920FB60F9211248F938D
:100080001092720010927100D698CC9B02C0CE9B49
:10009000FCCFCE9902C088EE01C088EB8DB980EF0D
:1000A0008EB98F910F900FBE0F901F9018951F92D1
:1000B0000F920FB60F9211242F933F938F939F931C
:1000C000EF93FF93809171009091720082309105BF
:1000D00059F128F4009761F00197A9F17CC08430B0
:1000E000910509F44DC048F1059709F452C073C059
:1000F0008FB1882359F02FB1269530E080916F00A1
:10010000992787FD909528173907D1F4789B03C06C
:1001100081E090E004C010926B0084E090E0909346
:1001200072008093710053C0DE9883E090E090935A
:10013000720080937100D6984CC08FB1882319F05B
:1001400088EA8DB924C0E0916C00E63054F4EE0FDB
:10015000FF0BED58FF4F0190F081E02D80818FB9AA
:1001600001C01FB880916C008F5F80936C0082E0AB
:1001700090E09093720080937100D69ADE9A07C047
:1001800085E090E09093720080937100D69880E7AC
:1001900021C084E090E09093720080937100809180
:1001A0006B00811107C08FB180936C0081E0809358
:1001B0006B000DC0E0916C00E6304CF4EE0FFF0BCD
:1001C000ED58FF4F0190F081E02D8FB180831FB873
:1001D000D69A8EE78EB9FF91EF919F918F913F91C3
:1001E0002F910F900FBE0F901F901895D59ADD9804
:1001F00080E28FBD81E18EBD8FEF9FE095BD84BD14
:1002000019BC18BC789482E029DF86E690E09093D0
:1002100074008093730087E690E09093760080935B
:10022000750088E690E0909378008093770089E6E7
:1002300090E090937A00809379008AE690E0909322
:100240007C0080937B0080916600882351F0813090
:1002500031F4809167009091680099BD88BD10923B
:10026000660000008FE493EC0197F1F700C00000F6
:06027000EACFF894FFCF75
:040276000000803FC5
:00000001FF
