:1000000010C02AC029C028C027C026C025C024C0CF
:1000100023C022C021C020C01FC01EC01DC044C0BC
:100020005FC011241FBECFE5D1E0DEBFCDBF10E021
:10003000A0E6B0E0E4E7F2E002C005900D92A6363B
:10004000B107D9F720E0A6E6B0E001C01D92A93AB9
:10005000B207E1F7FBD00CC1D3CF39B389B329B3D1
:1000600099B384703870832B2270822B9170892B06
:10007000089580936E00089510927F0010926D0095
:1000800010928600109285001092880010928700CE
:100090000895DC9ADE9AD49AD69880936E0088EA06
:1000A0008DB980EF8EB9E8CF1F920F920FB60F92E5
:1000B00011248F931092810010928000CC9B02C07B
:1000C000CE9BFCCFDE9B02C088EB01C088EE8DB9D1
:1000D00080EF8EB98F910F900FBE0F901F901895E3
:1000E0001F920F920FB60F9211242F938F939F930D
:1000F000EF93FF9380918000909181008130910572
:1001000041F1C8F08230910589F1039709F04BC0A5
:10011000E0918500F09186002FB1EE0FFF1FE757A9
:10012000FF4F80819181922B918380831092810077
:100130001092800034C08FB1882331F08FB1869542
:1001400090916E0089132FC078992DC081E090E0C6
:1001500022C0E0917F00EF5FE0937F008FB1F0E07D
:10016000E159FF4F808382E090E015C080918500C7
:1001700090918600019690938600809385002FB120
:10018000FC01EE0FFF1FE757FF4F822F90E0918396
:10019000808383E090E090938100809380001FB87B
:1001A000D69A8EE78EB9FF91EF919F918F912F9103
:1001B0000F900FBE0F901F901895D59ADD9880E292
:1001C0008FBD81E18EBD8FEF9FE095BD84BD19BCD1
:1001D00018BC0895811520E1920710F08FEF9FE081
:1001E00090936A008093690099BD88BD08958FEF50
:1001F0009FE099BD88BD89E090E0EFE4F3EC319792
:10020000F1F700C0000001970097B9F780916900ED
:1002100090916A0099BD88BD08959093680080937D
:10022000670008959093650080936400089580911D
:10023000690090916A00089580916700909168002C
:100240000895809164009091650008958BB38F604C
:100250008BBB1ABAB2DF01DF1CDF78940000FDDE31
:1002600008DF8FE493EC0197F1F700C00000F6CFB0
:04027000F894FFCF30
:060274000000803FFFFFC7
:00000001FF
